{
  "contractName": "Healthcare",
  "abi": [
    {
      "constant": true,
      "inputs": [
        {
          "name": "",
          "type": "address"
        }
      ],
      "name": "patients",
      "outputs": [
        {
          "name": "name",
          "type": "string"
        },
        {
          "name": "age",
          "type": "uint256"
        },
        {
          "name": "gender",
          "type": "string"
        },
        {
          "name": "condition",
          "type": "string"
        },
        {
          "name": "contactNumber",
          "type": "string"
        },
        {
          "name": "medicalHistory",
          "type": "string"
        }
      ],
      "payable": false,
      "stateMutability": "view",
      "type": "function"
    },
    {
      "anonymous": false,
      "inputs": [
        {
          "indexed": true,
          "name": "patientAddress",
          "type": "address"
        },
        {
          "indexed": false,
          "name": "name",
          "type": "string"
        },
        {
          "indexed": false,
          "name": "age",
          "type": "uint256"
        },
        {
          "indexed": false,
          "name": "gender",
          "type": "string"
        },
        {
          "indexed": false,
          "name": "condition",
          "type": "string"
        },
        {
          "indexed": false,
          "name": "contactNumber",
          "type": "string"
        },
        {
          "indexed": false,
          "name": "medicalHistory",
          "type": "string"
        }
      ],
      "name": "PatientRegistered",
      "type": "event"
    },
    {
      "constant": false,
      "inputs": [
        {
          "name": "_name",
          "type": "string"
        },
        {
          "name": "_age",
          "type": "uint256"
        },
        {
          "name": "_gender",
          "type": "string"
        },
        {
          "name": "_condition",
          "type": "string"
        },
        {
          "name": "_contactNumber",
          "type": "string"
        },
        {
          "name": "_medicalHistory",
          "type": "string"
        }
      ],
      "name": "addPatient",
      "outputs": [],
      "payable": false,
      "stateMutability": "nonpayable",
      "type": "function"
    }
  ],
  "bytecode": "0x608060405234801561001057600080fd5b50610b57806100206000396000f3fe608060405260043610610046576000357c0100000000000000000000000000000000000000000000000000000000900480630869cfbc1461004b578063d70e5c861461008d575b600080fd5b34801561005757600080fd5b50610072600480360361006d9190810190610711565b6100b6565b60405161008496959493929190610971565b60405180910390f35b34801561009957600080fd5b506100b460048036036100af919081019061073a565b6103ea565b005b6000602052806000526040600020600091509050806000018054600181600116156101000203166002900480601f0160208091040260200160405190810160405280929190818152602001828054600181600116156101000203166002900480156101625780601f1061013757610100808354040283529160200191610162565b820191906000526020600020905b81548152906001019060200180831161014557829003601f168201915b505050505090806001015490806002018054600181600116156101000203166002900480601f0160208091040260200160405190810160405280929190818152602001828054600181600116156101000203166002900480156102065780601f106101db57610100808354040283529160200191610206565b820191906000526020600020905b8154815290600101906020018083116101e957829003601f168201915b505050505090806003018054600181600116156101000203166002900480601f0160208091040260200160405190810160405280929190818152602001828054600181600116156101000203166002900480156102a45780601f10610279576101008083540402835291602001916102a4565b820191906000526020600020905b81548152906001019060200180831161028757829003601f168201915b505050505090806004018054600181600116156101000203166002900480601f0160208091040260200160405190810160405280929190818152602001828054600181600116156101000203166002900480156103425780601f1061031757610100808354040283529160200191610342565b820191906000526020600020905b81548152906001019060200180831161032557829003601f168201915b505050505090806005018054600181600116156101000203166002900480601f0160208091040260200160405190810160405280929190818152602001828054600181600116156101000203166002900480156103e05780601f106103b5576101008083540402835291602001916103e0565b820191906000526020600020905b8154815290600101906020018083116103c357829003601f168201915b5050505050905086565b60008060003373ffffffffffffffffffffffffffffffffffffffff1673ffffffffffffffffffffffffffffffffffffffff168152602001908152602001600020600001805460018160011615610100020316600290049050141515610484576040517f08c379a000000000000000000000000000000000000000000000000000000000815260040161047b906109f5565b60405180910390fd5b60c060405190810160405280878152602001868152602001858152602001848152602001838152602001828152506000803373ffffffffffffffffffffffffffffffffffffffff1673ffffffffffffffffffffffffffffffffffffffff168152602001908152602001600020600082015181600001908051906020019061050c9291906105ee565b506020820151816001015560408201518160020190805190602001906105339291906105ee565b5060608201518160030190805190602001906105509291906105ee565b50608082015181600401908051906020019061056d9291906105ee565b5060a082015181600501908051906020019061058a9291906105ee565b509050503373ffffffffffffffffffffffffffffffffffffffff167f8b8a2b55d7b3147c74fa029fb890c1a1767c2be425e44850323ca1255aea91148787878787876040516105de969594939291906108ed565b60405180910390a2505050505050565b828054600181600116156101000203166002900490600052602060002090601f016020900481019282601f1061062f57805160ff191683800117855561065d565b8280016001018555821561065d579182015b8281111561065c578251825591602001919060010190610641565b5b50905061066a919061066e565b5090565b61069091905b8082111561068c576000816000905550600101610674565b5090565b90565b600061069f8235610aae565b905092915050565b600082601f83011215156106ba57600080fd5b81356106cd6106c882610a42565b610a15565b915080825260208301602083018583830111156106e957600080fd5b6106f4838284610aca565b50505092915050565b60006107098235610ac0565b905092915050565b60006020828403121561072357600080fd5b600061073184828501610693565b91505092915050565b60008060008060008060c0878903121561075357600080fd5b600087013567ffffffffffffffff81111561076d57600080fd5b61077989828a016106a7565b965050602061078a89828a016106fd565b955050604087013567ffffffffffffffff8111156107a757600080fd5b6107b389828a016106a7565b945050606087013567ffffffffffffffff8111156107d057600080fd5b6107dc89828a016106a7565b935050608087013567ffffffffffffffff8111156107f957600080fd5b61080589828a016106a7565b92505060a087013567ffffffffffffffff81111561082257600080fd5b61082e89828a016106a7565b9150509295509295509295565b600061084682610a79565b80845261085a816020860160208601610ad9565b61086381610b0c565b602085010191505092915050565b600061087c82610a6e565b808452610890816020860160208601610ad9565b61089981610b0c565b602085010191505092915050565b6000601d82527f50617469656e74207265636f726420616c7265616479206578697374730000006020830152604082019050919050565b6108e781610aa4565b82525050565b600060c0820190508181036000830152610907818961083b565b905061091660208301886108de565b8181036040830152610928818761083b565b9050818103606083015261093c818661083b565b90508181036080830152610950818561083b565b905081810360a0830152610964818461083b565b9050979650505050505050565b600060c082019050818103600083015261098b8189610871565b905061099a60208301886108de565b81810360408301526109ac8187610871565b905081810360608301526109c08186610871565b905081810360808301526109d48185610871565b905081810360a08301526109e88184610871565b9050979650505050505050565b60006020820190508181036000830152610a0e816108a7565b9050919050565b6000604051905081810181811067ffffffffffffffff82111715610a3857600080fd5b8060405250919050565b600067ffffffffffffffff821115610a5957600080fd5b601f19601f8301169050602081019050919050565b600081519050919050565b600081519050919050565b600073ffffffffffffffffffffffffffffffffffffffff82169050919050565b6000819050919050565b6000610ab982610a84565b9050919050565b6000819050919050565b82818337600083830152505050565b60005b83811015610af7578082015181840152602081019050610adc565b83811115610b06576000848401525b50505050565b6000601f19601f830116905091905056fea265627a7a7230582023cb29a676faf2a86ff77ea097701e051ee74bb09c28ac11392f729603932be26c6578706572696d656e74616cf50037",
  "source": "// SPDX-License-Identifier: MIT\npragma solidity >=0.4.22 <0.9.0;\npragma experimental ABIEncoderV2;\n\ncontract Healthcare {\n    struct Patient {\n        string name;\n        uint age;\n        string gender;\n        string condition;\n        string contactNumber;\n        string medicalHistory;\n    }\n\n    mapping(address => Patient) public patients;\n\n    event PatientRegistered(\n        address indexed patientAddress,\n        string name,\n        uint age,\n        string gender,\n        string condition,\n        string contactNumber,\n        string medicalHistory\n    );\n\n    function addPatient(\n        string memory _name,\n        uint _age,\n        string memory _gender,\n        string memory _condition,\n        string memory _contactNumber,\n        string memory _medicalHistory\n    ) public {\n        require(bytes(patients[msg.sender].name).length == 0, \"Patient record already exists\");\n\n        patients[msg.sender] = Patient({\n            name: _name,\n            age: _age,\n            gender: _gender,\n            condition: _condition,\n            contactNumber: _contactNumber,\n            medicalHistory: _medicalHistory\n        });\n\n        emit PatientRegistered(msg.sender, _name, _age, _gender, _condition, _contactNumber, _medicalHistory);\n    }\n}\n\n",
  "sourcePath": "/home/khushi/Downloads/healthcare_sphincs/contracts/hc1.sol",
  "compiler": {
    "name": "solc",
    "version": "0.5.1+commit.c8a2cb62.Emscripten.clang"
  },
  "schemaVersion": "3.4.16",
  "updatedAt": "2024-07-02T09:21:47.969Z",
  "networkType": "ethereum",
  "devdoc": {
    "methods": {}
  },
  "userdoc": {
    "methods": {}
  }
}